{"abi":[{"type":"constructor","inputs":[],"stateMutability":"nonpayable"},{"type":"function","name":"callFunction","inputs":[{"name":"funcSelector","type":"string","internalType":"string"},{"name":"args","type":"bytes[]","internalType":"bytes[]"}],"outputs":[],"stateMutability":"nonpayable"},{"type":"function","name":"createHoneyPot","inputs":[{"name":"contractAddress","type":"address","internalType":"address"}],"outputs":[],"stateMutability":"nonpayable"}],"bytecode":{"object":"0x6080604052348015600f57600080fd5b506103638061001f6000396000f3fe608060405234801561001057600080fd5b50600436106100365760003560e01c806361a9bc721461003b578063cf6ef3651461004e575b600080fd5b61004c61004936600461011f565b50565b005b61004c61005c36600461014f565b600080306001600160a01b03168686868660405160240161007e92919061024b565b60408051601f19818403018152908290529261009b9290916102ee565b60408051918290039091206020830180516001600160e01b03166001600160e01b0319909216919091179052516100d291906102fe565b6000604051808303816000865af19150503d806000811461010f576040519150601f19603f3d011682016040523d82523d6000602084013e610114565b606091505b505050505050505050565b60006020828403121561013157600080fd5b81356001600160a01b038116811461014857600080fd5b9392505050565b6000806000806040858703121561016557600080fd5b843567ffffffffffffffff81111561017c57600080fd5b8501601f8101871361018d57600080fd5b803567ffffffffffffffff8111156101a457600080fd5b8760208284010111156101b657600080fd5b60209182019550935085013567ffffffffffffffff8111156101d757600080fd5b8501601f810187136101e857600080fd5b803567ffffffffffffffff8111156101ff57600080fd5b8760208260051b840101111561021457600080fd5b949793965060200194505050565b81835281816020850137506000828201602090810191909152601f909101601f19169091010190565b6020808252810182905260006040600584901b830181019083018583601e1936839003015b878210156102e157868503603f19018452823581811261028f57600080fd5b890160208101903567ffffffffffffffff8111156102ac57600080fd5b8036038213156102bb57600080fd5b6102c6878284610222565b96505050602083019250602084019350600182019150610270565b5092979650505050505050565b8183823760009101908152919050565b6000825160005b8181101561031f5760208186018101518583015201610305565b50600092019182525091905056fea26469706673582212200ed74038dccc73224a75dcaa44f855983d398b157bf6a913ceacfca38576f0f064736f6c634300081a0033","linkReferences":{}},"methodIdentifiers":{"callFunction(string,bytes[])":"cf6ef365","createHoneyPot(address)":"61a9bc72"},"id":0}