{"abi":[{"type":"function","name":"deposit","inputs":[{"name":"message1","type":"string","internalType":"string"},{"name":"message2","type":"string","internalType":"string"}],"outputs":[],"stateMutability":"payable"},{"type":"event","name":"Message","inputs":[{"name":"message1","type":"string","indexed":false,"internalType":"string"},{"name":"message2","type":"string","indexed":false,"internalType":"string"}],"anonymous":false}],"bytecode":{"object":"0x6080604052348015600f57600080fd5b506101c68061001f6000396000f3fe60806040526004361061001e5760003560e01c80637a9b486d14610023575b600080fd5b6100366100313660046100c4565b610038565b005b7f8252da6cc8ba70656d63b4439295f2de59ffee7cf90c96f5aee10857159474e78484848460405161006d949392919061015e565b60405180910390a150505050565b60008083601f84011261008d57600080fd5b50813567ffffffffffffffff8111156100a557600080fd5b6020830191508360208285010111156100bd57600080fd5b9250929050565b600080600080604085870312156100da57600080fd5b843567ffffffffffffffff8111156100f157600080fd5b6100fd8782880161007b565b909550935050602085013567ffffffffffffffff81111561011d57600080fd5b6101298782880161007b565b95989497509550505050565b81835281816020850137506000828201602090810191909152601f909101601f19169091010190565b604081526000610172604083018688610135565b8281036020840152610185818587610135565b97965050505050505056fea2646970667358221220dd48ff158277d14938c39dda27e5b58d78e44771a8a1e3a9a33c89619b7cb5ae64736f6c634300081a0033","linkReferences":{}},"methodIdentifiers":{"deposit(string,string)":"7a9b486d"},"id":1}